{
  "contractName": "QVVoting",
  "abi": [
    {
      "inputs": [],
      "stateMutability": "nonpayable",
      "type": "constructor"
    },
    {
      "anonymous": false,
      "inputs": [
        {
          "indexed": true,
          "internalType": "address",
          "name": "account",
          "type": "address"
        }
      ],
      "name": "MinterAdded",
      "type": "event"
    },
    {
      "anonymous": false,
      "inputs": [
        {
          "indexed": true,
          "internalType": "address",
          "name": "account",
          "type": "address"
        }
      ],
      "name": "MinterRemoved",
      "type": "event"
    },
    {
      "anonymous": false,
      "inputs": [
        {
          "indexed": true,
          "internalType": "address",
          "name": "previousOwner",
          "type": "address"
        },
        {
          "indexed": true,
          "internalType": "address",
          "name": "newOwner",
          "type": "address"
        }
      ],
      "name": "OwnershipTransferred",
      "type": "event"
    },
    {
      "anonymous": false,
      "inputs": [
        {
          "indexed": false,
          "internalType": "address",
          "name": "creator",
          "type": "address"
        },
        {
          "indexed": false,
          "internalType": "uint256",
          "name": "ProposalID",
          "type": "uint256"
        },
        {
          "indexed": false,
          "internalType": "string",
          "name": "description",
          "type": "string"
        },
        {
          "indexed": false,
          "internalType": "uint256",
          "name": "votingTimeInHours",
          "type": "uint256"
        }
      ],
      "name": "ProposalCreated",
      "type": "event"
    },
    {
      "anonymous": false,
      "inputs": [
        {
          "indexed": false,
          "internalType": "address",
          "name": "voter",
          "type": "address"
        },
        {
          "indexed": false,
          "internalType": "uint256",
          "name": "ProposalID",
          "type": "uint256"
        },
        {
          "indexed": false,
          "internalType": "uint256",
          "name": "weight",
          "type": "uint256"
        }
      ],
      "name": "VoteCasted",
      "type": "event"
    },
    {
      "inputs": [],
      "name": "ProposalCount",
      "outputs": [
        {
          "internalType": "uint256",
          "name": "",
          "type": "uint256"
        }
      ],
      "stateMutability": "view",
      "type": "function"
    },
    {
      "inputs": [
        {
          "internalType": "uint256",
          "name": "",
          "type": "uint256"
        }
      ],
      "name": "Proposals",
      "outputs": [
        {
          "internalType": "address",
          "name": "creator",
          "type": "address"
        },
        {
          "internalType": "enum QVVoting.ProposalStatus",
          "name": "status",
          "type": "uint8"
        },
        {
          "internalType": "uint256",
          "name": "yesVotes",
          "type": "uint256"
        },
        {
          "internalType": "uint256",
          "name": "noVotes",
          "type": "uint256"
        },
        {
          "internalType": "string",
          "name": "description",
          "type": "string"
        },
        {
          "internalType": "uint256",
          "name": "expirationTime",
          "type": "uint256"
        }
      ],
      "stateMutability": "view",
      "type": "function"
    },
    {
      "inputs": [
        {
          "internalType": "address",
          "name": "account",
          "type": "address"
        }
      ],
      "name": "addMinter",
      "outputs": [],
      "stateMutability": "nonpayable",
      "type": "function"
    },
    {
      "inputs": [
        {
          "internalType": "address",
          "name": "account",
          "type": "address"
        }
      ],
      "name": "isMinter",
      "outputs": [
        {
          "internalType": "bool",
          "name": "",
          "type": "bool"
        }
      ],
      "stateMutability": "view",
      "type": "function"
    },
    {
      "inputs": [],
      "name": "name",
      "outputs": [
        {
          "internalType": "string",
          "name": "",
          "type": "string"
        }
      ],
      "stateMutability": "view",
      "type": "function"
    },
    {
      "inputs": [],
      "name": "owner",
      "outputs": [
        {
          "internalType": "address",
          "name": "",
          "type": "address"
        }
      ],
      "stateMutability": "view",
      "type": "function"
    },
    {
      "inputs": [],
      "name": "renounceMinter",
      "outputs": [],
      "stateMutability": "nonpayable",
      "type": "function"
    },
    {
      "inputs": [],
      "name": "renounceOwnership",
      "outputs": [],
      "stateMutability": "nonpayable",
      "type": "function"
    },
    {
      "inputs": [],
      "name": "symbol",
      "outputs": [
        {
          "internalType": "string",
          "name": "",
          "type": "string"
        }
      ],
      "stateMutability": "view",
      "type": "function"
    },
    {
      "inputs": [
        {
          "internalType": "address",
          "name": "newOwner",
          "type": "address"
        }
      ],
      "name": "transferOwnership",
      "outputs": [],
      "stateMutability": "nonpayable",
      "type": "function"
    },
    {
      "inputs": [
        {
          "internalType": "string",
          "name": "_description",
          "type": "string"
        },
        {
          "internalType": "uint256",
          "name": "_voteExpirationTime",
          "type": "uint256"
        }
      ],
      "name": "createProposal",
      "outputs": [
        {
          "internalType": "uint256",
          "name": "",
          "type": "uint256"
        }
      ],
      "stateMutability": "nonpayable",
      "type": "function"
    },
    {
      "inputs": [
        {
          "internalType": "uint256",
          "name": "_ProposalID",
          "type": "uint256"
        }
      ],
      "name": "setProposalToTally",
      "outputs": [],
      "stateMutability": "nonpayable",
      "type": "function"
    },
    {
      "inputs": [
        {
          "internalType": "uint256",
          "name": "_ProposalID",
          "type": "uint256"
        }
      ],
      "name": "setProposalToEnded",
      "outputs": [],
      "stateMutability": "nonpayable",
      "type": "function"
    },
    {
      "inputs": [
        {
          "internalType": "uint256",
          "name": "_ProposalID",
          "type": "uint256"
        }
      ],
      "name": "getProposalStatus",
      "outputs": [
        {
          "internalType": "enum QVVoting.ProposalStatus",
          "name": "",
          "type": "uint8"
        }
      ],
      "stateMutability": "view",
      "type": "function"
    },
    {
      "inputs": [
        {
          "internalType": "uint256",
          "name": "_ProposalID",
          "type": "uint256"
        }
      ],
      "name": "getProposalExpirationTime",
      "outputs": [
        {
          "internalType": "uint256",
          "name": "",
          "type": "uint256"
        }
      ],
      "stateMutability": "view",
      "type": "function"
    },
    {
      "inputs": [
        {
          "internalType": "uint256",
          "name": "_ProposalID",
          "type": "uint256"
        }
      ],
      "name": "countVotes",
      "outputs": [
        {
          "internalType": "uint256",
          "name": "",
          "type": "uint256"
        },
        {
          "internalType": "uint256",
          "name": "",
          "type": "uint256"
        }
      ],
      "stateMutability": "view",
      "type": "function"
    },
    {
      "inputs": [
        {
          "internalType": "uint256",
          "name": "_ProposalID",
          "type": "uint256"
        },
        {
          "internalType": "uint256",
          "name": "numTokens",
          "type": "uint256"
        },
        {
          "internalType": "bool",
          "name": "_vote",
          "type": "bool"
        }
      ],
      "name": "castVote",
      "outputs": [],
      "stateMutability": "nonpayable",
      "type": "function"
    },
    {
      "inputs": [
        {
          "internalType": "address",
          "name": "account",
          "type": "address"
        },
        {
          "internalType": "uint256",
          "name": "amount",
          "type": "uint256"
        }
      ],
      "name": "mint",
      "outputs": [],
      "stateMutability": "nonpayable",
      "type": "function"
    },
    {
      "inputs": [
        {
          "internalType": "address",
          "name": "account",
          "type": "address"
        }
      ],
      "name": "balanceOf",
      "outputs": [
        {
          "internalType": "uint256",
          "name": "",
          "type": "uint256"
        }
      ],
      "stateMutability": "view",
      "type": "function"
    }
  ],
  "bytecode": "0x60806040523480156200001157600080fd5b506200003262000026620000e560201b60201c565b620000ed60201b60201c565b6200004333620001b160201b60201c565b6040518060400160405280600381526020017f51565600000000000000000000000000000000000000000000000000000000008152506003908051906020019062000090929190620002ab565b506040518060400160405280600981526020017f515620566f74696e67000000000000000000000000000000000000000000000081525060049080519060200190620000de929190620002ab565b50620003c0565b600033905090565b60008060009054906101000a900473ffffffffffffffffffffffffffffffffffffffff169050816000806101000a81548173ffffffffffffffffffffffffffffffffffffffff021916908373ffffffffffffffffffffffffffffffffffffffff1602179055508173ffffffffffffffffffffffffffffffffffffffff168173ffffffffffffffffffffffffffffffffffffffff167f8be0079c531659141344cd1fd0a4f28419497f9722a3daafe3b4186f6b6457e060405160405180910390a35050565b620001cc8160016200021260201b620015801790919060201c565b8073ffffffffffffffffffffffffffffffffffffffff167f6ae172837ea30b801fbfcdd4108aa1d5bf8ff775444fd70256b44e6bf3dfc3f660405160405180910390a250565b600073ffffffffffffffffffffffffffffffffffffffff168173ffffffffffffffffffffffffffffffffffffffff1614156200024d57600080fd5b60018260000160008373ffffffffffffffffffffffffffffffffffffffff1673ffffffffffffffffffffffffffffffffffffffff16815260200190815260200160002060006101000a81548160ff0219169083151502179055505050565b828054620002b9906200038a565b90600052602060002090601f016020900481019282620002dd576000855562000329565b82601f10620002f857805160ff191683800117855562000329565b8280016001018555821562000329579182015b82811115620003285782518255916020019190600101906200030b565b5b5090506200033891906200033c565b5090565b5b80821115620003575760008160009055506001016200033d565b5090565b7f4e487b7100000000000000000000000000000000000000000000000000000000600052602260045260246000fd5b60006002820490506001821680620003a357607f821691505b60208210811415620003ba57620003b96200035b565b5b50919050565b6127c080620003d06000396000f3fe608060405234801561001057600080fd5b50600436106101215760003560e01c8063715018a6116100ad578063aa271e1a11610071578063aa271e1a146102f5578063be747c1c14610325578063d1dbe7d814610343578063f2fde38b14610378578063f9000ba81461039457610121565b8063715018a6146102895780638da5cb5b1461029357806395d89b41146102b1578063983b2d56146102cf57806398650275146102eb57610121565b8063401853b7116100f4578063401853b7146101c157806340c10f19146101f15780634c3bd9d61461020d5780634d5f9eba1461022957806370a082311461025957610121565b806306fdde03146101265780631840f0ca146101445780632d5e9d291461017557806335facf7814610191575b600080fd5b61012e6103b0565b60405161013b9190611b1c565b60405180910390f35b61015e60048036038101906101599190611b7e565b61043e565b60405161016c929190611bba565b60405180910390f35b61018f600480360381019061018a9190611b7e565b610625565b005b6101ab60048036038101906101a69190611c48565b61080b565b6040516101b89190611ca8565b60405180910390f35b6101db60048036038101906101d69190611b7e565b6109fb565b6040516101e89190611d3a565b60405180910390f35b61020b60048036038101906102069190611db3565b610a7b565b005b61022760048036038101906102229190611b7e565b610c0d565b005b610243600480360381019061023e9190611b7e565b610df3565b6040516102509190611ca8565b60405180910390f35b610273600480360381019061026e9190611df3565b610e66565b6040516102809190611ca8565b60405180910390f35b610291610eaf565b005b61029b610f37565b6040516102a89190611e2f565b60405180910390f35b6102b9610f60565b6040516102c69190611b1c565b60405180910390f35b6102e960048036038101906102e49190611df3565b610fee565b005b6102f361100c565b005b61030f600480360381019061030a9190611df3565b611017565b60405161031c9190611e65565b60405180910390f35b61032d611034565b60405161033a9190611ca8565b60405180910390f35b61035d60048036038101906103589190611b7e565b61103a565b60405161036f96959493929190611e80565b60405180910390f35b610392600480360381019061038d9190611df3565b61112b565b005b6103ae60048036038101906103a99190611f14565b611223565b005b600480546103bd90611f96565b80601f01602080910402602001604051908101604052809291908181526020018280546103e990611f96565b80156104365780601f1061040b57610100808354040283529160200191610436565b820191906000526020600020905b81548152906001019060200180831161041957829003601f168201915b505050505081565b6000806000806000600660008781526020019081526020016000206004018054806020026020016040519081016040528092919081815260200182805480156104dc57602002820191906000526020600020905b8160009054906101000a900473ffffffffffffffffffffffffffffffffffffffff1673ffffffffffffffffffffffffffffffffffffffff1681526020019060010190808311610492575b5050505050905060005b815181101561061657600082828151811061050457610503611fc8565b5b602002602001015190506000600660008a815260200190815260200160002060060160008373ffffffffffffffffffffffffffffffffffffffff1673ffffffffffffffffffffffffffffffffffffffff16815260200190815260200160002060000160019054906101000a900460ff1690506000600660008b815260200190815260200160002060060160008473ffffffffffffffffffffffffffffffffffffffff1673ffffffffffffffffffffffffffffffffffffffff1681526020019081526020016000206001015490506001151582151514156105f15780876105ea9190612026565b9650610600565b80866105fd9190612026565b95505b505050808061060e9061207c565b9150506104e6565b50828294509450505050915091565b8060008111801561063857506007548111155b610677576040517f08c379a000000000000000000000000000000000000000000000000000000000815260040161066e90612111565b60405180910390fd5b61067f611618565b73ffffffffffffffffffffffffffffffffffffffff1661069d610f37565b73ffffffffffffffffffffffffffffffffffffffff16146106f3576040517f08c379a00000000000000000000000000000000000000000000000000000000081526004016106ea9061217d565b60405180910390fd5b6000600281111561070757610706611cc3565b5b6006600084815260200190815260200160002060000160149054906101000a900460ff16600281111561073d5761073c611cc3565b5b1461077d576040517f08c379a0000000000000000000000000000000000000000000000000000000008152600401610774906121e9565b60405180910390fd5b61078682610df3565b4210156107c8576040517f08c379a00000000000000000000000000000000000000000000000000000000081526004016107bf90612255565b60405180910390fd5b60016006600084815260200190815260200160002060000160146101000a81548160ff0219169083600281111561080257610801611cc3565b5b02179055505050565b6000610815611618565b73ffffffffffffffffffffffffffffffffffffffff16610833610f37565b73ffffffffffffffffffffffffffffffffffffffff1614610889576040517f08c379a00000000000000000000000000000000000000000000000000000000081526004016108809061217d565b60405180910390fd5b600082116108cc576040517f08c379a00000000000000000000000000000000000000000000000000000000081526004016108c3906122c1565b60405180910390fd5b600760008154809291906108df9061207c565b919050555060006006600060075481526020019081526020016000209050338160000160006101000a81548173ffffffffffffffffffffffffffffffffffffffff021916908373ffffffffffffffffffffffffffffffffffffffff16021790555060008160000160146101000a81548160ff0219169083600281111561096857610967611cc3565b5b0217905550600183603c61097c91906122e1565b61098691906122e1565b426109919190612026565b816005018190555084848260030191906109ac9291906119e0565b507f781e930fda5896dda55b0c20f29c285b9bedfb112a3a6456d12c63b278537ae0336007548787876040516109e6959493929190612377565b60405180910390a16007549150509392505050565b600081600081118015610a1057506007548111155b610a4f576040517f08c379a0000000000000000000000000000000000000000000000000000000008152600401610a4690612111565b60405180910390fd5b6006600084815260200190815260200160002060000160149054906101000a900460ff16915050919050565b610a83611618565b73ffffffffffffffffffffffffffffffffffffffff16610aa1610f37565b73ffffffffffffffffffffffffffffffffffffffff1614610af7576040517f08c379a0000000000000000000000000000000000000000000000000000000008152600401610aee9061217d565b60405180910390fd5b600073ffffffffffffffffffffffffffffffffffffffff168273ffffffffffffffffffffffffffffffffffffffff161415610b67576040517f08c379a0000000000000000000000000000000000000000000000000000000008152600401610b5e90612411565b60405180910390fd5b80600254610b759190612026565b60028190555080600560008473ffffffffffffffffffffffffffffffffffffffff1673ffffffffffffffffffffffffffffffffffffffff16815260200190815260200160002054610bc69190612026565b600560008473ffffffffffffffffffffffffffffffffffffffff1673ffffffffffffffffffffffffffffffffffffffff168152602001908152602001600020819055505050565b80600081118015610c2057506007548111155b610c5f576040517f08c379a0000000000000000000000000000000000000000000000000000000008152600401610c5690612111565b60405180910390fd5b610c67611618565b73ffffffffffffffffffffffffffffffffffffffff16610c85610f37565b73ffffffffffffffffffffffffffffffffffffffff1614610cdb576040517f08c379a0000000000000000000000000000000000000000000000000000000008152600401610cd29061217d565b60405180910390fd5b60016002811115610cef57610cee611cc3565b5b6006600084815260200190815260200160002060000160149054906101000a900460ff166002811115610d2557610d24611cc3565b5b14610d65576040517f08c379a0000000000000000000000000000000000000000000000000000000008152600401610d5c9061247d565b60405180910390fd5b610d6e82610df3565b421015610db0576040517f08c379a0000000000000000000000000000000000000000000000000000000008152600401610da790612255565b60405180910390fd5b60026006600084815260200190815260200160002060000160146101000a81548160ff02191690836002811115610dea57610de9611cc3565b5b02179055505050565b600081600081118015610e0857506007548111155b610e47576040517f08c379a0000000000000000000000000000000000000000000000000000000008152600401610e3e90612111565b60405180910390fd5b6006600084815260200190815260200160002060050154915050919050565b6000600560008373ffffffffffffffffffffffffffffffffffffffff1673ffffffffffffffffffffffffffffffffffffffff168152602001908152602001600020549050919050565b610eb7611618565b73ffffffffffffffffffffffffffffffffffffffff16610ed5610f37565b73ffffffffffffffffffffffffffffffffffffffff1614610f2b576040517f08c379a0000000000000000000000000000000000000000000000000000000008152600401610f229061217d565b60405180910390fd5b610f356000611620565b565b60008060009054906101000a900473ffffffffffffffffffffffffffffffffffffffff16905090565b60038054610f6d90611f96565b80601f0160208091040260200160405190810160405280929190818152602001828054610f9990611f96565b8015610fe65780601f10610fbb57610100808354040283529160200191610fe6565b820191906000526020600020905b815481529060010190602001808311610fc957829003601f168201915b505050505081565b610ff733611017565b61100057600080fd5b611009816116e4565b50565b6110153361173e565b565b600061102d82600161179890919063ffffffff16565b9050919050565b60075481565b60066020528060005260406000206000915090508060000160009054906101000a900473ffffffffffffffffffffffffffffffffffffffff16908060000160149054906101000a900460ff16908060010154908060020154908060030180546110a290611f96565b80601f01602080910402602001604051908101604052809291908181526020018280546110ce90611f96565b801561111b5780601f106110f05761010080835404028352916020019161111b565b820191906000526020600020905b8154815290600101906020018083116110fe57829003601f168201915b5050505050908060050154905086565b611133611618565b73ffffffffffffffffffffffffffffffffffffffff16611151610f37565b73ffffffffffffffffffffffffffffffffffffffff16146111a7576040517f08c379a000000000000000000000000000000000000000000000000000000000815260040161119e9061217d565b60405180910390fd5b600073ffffffffffffffffffffffffffffffffffffffff168173ffffffffffffffffffffffffffffffffffffffff161415611217576040517f08c379a000000000000000000000000000000000000000000000000000000000815260040161120e9061250f565b60405180910390fd5b61122081611620565b50565b8260008111801561123657506007548111155b611275576040517f08c379a000000000000000000000000000000000000000000000000000000000815260040161126c90612111565b60405180910390fd5b6000600281111561128957611288611cc3565b5b611292856109fb565b60028111156112a4576112a3611cc3565b5b146112e4576040517f08c379a00000000000000000000000000000000000000000000000000000000081526004016112db9061257b565b60405180910390fd5b6112ee843361182a565b1561132e576040517f08c379a00000000000000000000000000000000000000000000000000000000081526004016113259061260d565b60405180910390fd5b4261133885610df3565b11611378576040517f08c379a000000000000000000000000000000000000000000000000000000000815260040161136f9061269f565b60405180910390fd5b82600560003373ffffffffffffffffffffffffffffffffffffffff1673ffffffffffffffffffffffffffffffffffffffff168152602001908152602001600020546113c391906126bf565b600560003373ffffffffffffffffffffffffffffffffffffffff1673ffffffffffffffffffffffffffffffffffffffff168152602001908152602001600020819055506000611411846118eb565b9050600060066000878152602001908152602001600020905060405180606001604052806001151581526020018515158152602001838152508160060160003373ffffffffffffffffffffffffffffffffffffffff1673ffffffffffffffffffffffffffffffffffffffff16815260200190815260200160002060008201518160000160006101000a81548160ff02191690831515021790555060208201518160000160016101000a81548160ff0219169083151502179055506040820151816001015590505080600401339080600181540180825580915050600190039060005260206000200160009091909190916101000a81548173ffffffffffffffffffffffffffffffffffffffff021916908373ffffffffffffffffffffffffffffffffffffffff1602179055507fcb87df07b1c304492bd875a5c8b98672eca500939412809ea229afef1d745188338784604051611570939291906126f3565b60405180910390a1505050505050565b600073ffffffffffffffffffffffffffffffffffffffff168173ffffffffffffffffffffffffffffffffffffffff1614156115ba57600080fd5b60018260000160008373ffffffffffffffffffffffffffffffffffffffff1673ffffffffffffffffffffffffffffffffffffffff16815260200190815260200160002060006101000a81548160ff0219169083151502179055505050565b600033905090565b60008060009054906101000a900473ffffffffffffffffffffffffffffffffffffffff169050816000806101000a81548173ffffffffffffffffffffffffffffffffffffffff021916908373ffffffffffffffffffffffffffffffffffffffff1602179055508173ffffffffffffffffffffffffffffffffffffffff168173ffffffffffffffffffffffffffffffffffffffff167f8be0079c531659141344cd1fd0a4f28419497f9722a3daafe3b4186f6b6457e060405160405180910390a35050565b6116f881600161158090919063ffffffff16565b8073ffffffffffffffffffffffffffffffffffffffff167f6ae172837ea30b801fbfcdd4108aa1d5bf8ff775444fd70256b44e6bf3dfc3f660405160405180910390a250565b61175281600161194890919063ffffffff16565b8073ffffffffffffffffffffffffffffffffffffffff167fe94479a9f7e1952cc78f2d6baab678adc1b772d936c6583def489e524cb6669260405160405180910390a250565b60008073ffffffffffffffffffffffffffffffffffffffff168273ffffffffffffffffffffffffffffffffffffffff1614156117d357600080fd5b8260000160008373ffffffffffffffffffffffffffffffffffffffff1673ffffffffffffffffffffffffffffffffffffffff16815260200190815260200160002060009054906101000a900460ff16905092915050565b60008260008111801561183f57506007548111155b61187e576040517f08c379a000000000000000000000000000000000000000000000000000000000815260040161187590612111565b60405180910390fd5b6006600085815260200190815260200160002060060160008473ffffffffffffffffffffffffffffffffffffffff1673ffffffffffffffffffffffffffffffffffffffff16815260200190815260200160002060000160009054906101000a900460ff1691505092915050565b60008060026001846118fd9190612026565b6119079190612759565b90508291505b818110156119425780915060028182856119279190612759565b6119319190612026565b61193b9190612759565b905061190d565b50919050565b600073ffffffffffffffffffffffffffffffffffffffff168173ffffffffffffffffffffffffffffffffffffffff16141561198257600080fd5b60008260000160008373ffffffffffffffffffffffffffffffffffffffff1673ffffffffffffffffffffffffffffffffffffffff16815260200190815260200160002060006101000a81548160ff0219169083151502179055505050565b8280546119ec90611f96565b90600052602060002090601f016020900481019282611a0e5760008555611a55565b82601f10611a2757803560ff1916838001178555611a55565b82800160010185558215611a55579182015b82811115611a54578235825591602001919060010190611a39565b5b509050611a629190611a66565b5090565b5b80821115611a7f576000816000905550600101611a67565b5090565b600081519050919050565b600082825260208201905092915050565b60005b83811015611abd578082015181840152602081019050611aa2565b83811115611acc576000848401525b50505050565b6000601f19601f8301169050919050565b6000611aee82611a83565b611af88185611a8e565b9350611b08818560208601611a9f565b611b1181611ad2565b840191505092915050565b60006020820190508181036000830152611b368184611ae3565b905092915050565b600080fd5b600080fd5b6000819050919050565b611b5b81611b48565b8114611b6657600080fd5b50565b600081359050611b7881611b52565b92915050565b600060208284031215611b9457611b93611b3e565b5b6000611ba284828501611b69565b91505092915050565b611bb481611b48565b82525050565b6000604082019050611bcf6000830185611bab565b611bdc6020830184611bab565b9392505050565b600080fd5b600080fd5b600080fd5b60008083601f840112611c0857611c07611be3565b5b8235905067ffffffffffffffff811115611c2557611c24611be8565b5b602083019150836001820283011115611c4157611c40611bed565b5b9250929050565b600080600060408486031215611c6157611c60611b3e565b5b600084013567ffffffffffffffff811115611c7f57611c7e611b43565b5b611c8b86828701611bf2565b93509350506020611c9e86828701611b69565b9150509250925092565b6000602082019050611cbd6000830184611bab565b92915050565b7f4e487b7100000000000000000000000000000000000000000000000000000000600052602160045260246000fd5b60038110611d0357611d02611cc3565b5b50565b6000819050611d1482611cf2565b919050565b6000611d2482611d06565b9050919050565b611d3481611d19565b82525050565b6000602082019050611d4f6000830184611d2b565b92915050565b600073ffffffffffffffffffffffffffffffffffffffff82169050919050565b6000611d8082611d55565b9050919050565b611d9081611d75565b8114611d9b57600080fd5b50565b600081359050611dad81611d87565b92915050565b60008060408385031215611dca57611dc9611b3e565b5b6000611dd885828601611d9e565b9250506020611de985828601611b69565b9150509250929050565b600060208284031215611e0957611e08611b3e565b5b6000611e1784828501611d9e565b91505092915050565b611e2981611d75565b82525050565b6000602082019050611e446000830184611e20565b92915050565b60008115159050919050565b611e5f81611e4a565b82525050565b6000602082019050611e7a6000830184611e56565b92915050565b600060c082019050611e956000830189611e20565b611ea26020830188611d2b565b611eaf6040830187611bab565b611ebc6060830186611bab565b8181036080830152611ece8185611ae3565b9050611edd60a0830184611bab565b979650505050505050565b611ef181611e4a565b8114611efc57600080fd5b50565b600081359050611f0e81611ee8565b92915050565b600080600060608486031215611f2d57611f2c611b3e565b5b6000611f3b86828701611b69565b9350506020611f4c86828701611b69565b9250506040611f5d86828701611eff565b9150509250925092565b7f4e487b7100000000000000000000000000000000000000000000000000000000600052602260045260246000fd5b60006002820490506001821680611fae57607f821691505b60208210811415611fc257611fc1611f67565b5b50919050565b7f4e487b7100000000000000000000000000000000000000000000000000000000600052603260045260246000fd5b7f4e487b7100000000000000000000000000000000000000000000000000000000600052601160045260246000fd5b600061203182611b48565b915061203c83611b48565b9250827fffffffffffffffffffffffffffffffffffffffffffffffffffffffffffffffff0382111561207157612070611ff7565b5b828201905092915050565b600061208782611b48565b91507fffffffffffffffffffffffffffffffffffffffffffffffffffffffffffffffff8214156120ba576120b9611ff7565b5b600182019050919050565b7f4e6f7420612076616c69642050726f706f73616c204964000000000000000000600082015250565b60006120fb601783611a8e565b9150612106826120c5565b602082019050919050565b6000602082019050818103600083015261212a816120ee565b9050919050565b7f4f776e61626c653a2063616c6c6572206973206e6f7420746865206f776e6572600082015250565b6000612167602083611a8e565b915061217282612131565b602082019050919050565b600060208201905081810360008301526121968161215a565b9050919050565b7f566f7465206973206e6f7420696e2070726f6772657373000000000000000000600082015250565b60006121d3601783611a8e565b91506121de8261219d565b602082019050919050565b60006020820190508181036000830152612202816121c6565b9050919050565b7f766f74696e6720706572696f6420686173206e6f742065787069726564000000600082015250565b600061223f601d83611a8e565b915061224a82612209565b602082019050919050565b6000602082019050818103600083015261226e81612232565b9050919050565b7f54686520766f74696e6720706572696f642063616e6e6f742062652030000000600082015250565b60006122ab601d83611a8e565b91506122b682612275565b602082019050919050565b600060208201905081810360008301526122da8161229e565b9050919050565b60006122ec82611b48565b91506122f783611b48565b9250817fffffffffffffffffffffffffffffffffffffffffffffffffffffffffffffffff04831182151516156123305761232f611ff7565b5b828202905092915050565b82818337600083830152505050565b60006123568385611a8e565b935061236383858461233b565b61236c83611ad2565b840190509392505050565b600060808201905061238c6000830188611e20565b6123996020830187611bab565b81810360408301526123ac81858761234a565b90506123bb6060830184611bab565b9695505050505050565b7f206d696e7420746f20746865207a65726f206164647265737300000000000000600082015250565b60006123fb601983611a8e565b9150612406826123c5565b602082019050919050565b6000602082019050818103600083015261242a816123ee565b9050919050565b7f50726f706f73616c2073686f756c6420626520696e2074616c6c790000000000600082015250565b6000612467601b83611a8e565b915061247282612431565b602082019050919050565b600060208201905081810360008301526124968161245a565b9050919050565b7f4f776e61626c653a206e6577206f776e657220697320746865207a65726f206160008201527f6464726573730000000000000000000000000000000000000000000000000000602082015250565b60006124f9602683611a8e565b91506125048261249d565b604082019050919050565b60006020820190508181036000830152612528816124ec565b9050919050565b7f70726f706f73616c2068617320657870697265642e0000000000000000000000600082015250565b6000612565601583611a8e565b91506125708261252f565b602082019050919050565b6000602082019050818103600083015261259481612558565b9050919050565b7f7573657220616c726561647920766f746564206f6e20746869732070726f706f60008201527f73616c0000000000000000000000000000000000000000000000000000000000602082015250565b60006125f7602383611a8e565b91506126028261259b565b604082019050919050565b60006020820190508181036000830152612626816125ea565b9050919050565b7f666f7220746869732070726f706f73616c2c2074686520766f74696e6720746960008201527f6d65206578706972656400000000000000000000000000000000000000000000602082015250565b6000612689602a83611a8e565b91506126948261262d565b604082019050919050565b600060208201905081810360008301526126b88161267c565b9050919050565b60006126ca82611b48565b91506126d583611b48565b9250828210156126e8576126e7611ff7565b5b828203905092915050565b60006060820190506127086000830186611e20565b6127156020830185611bab565b6127226040830184611bab565b949350505050565b7f4e487b7100000000000000000000000000000000000000000000000000000000600052601260045260246000fd5b600061276482611b48565b915061276f83611b48565b92508261277f5761277e61272a565b5b82820490509291505056fea26469706673582212201532fa7d29d79e16cf857faebfa2b0e181c4add03ea6248a80b77f4cea7f43f964736f6c634300080a0033",
  "immutableReferences": {},
  "source": "\n// SPDX-License-Identifier: MIT\npragma solidity ^0.8.10;\n\nimport \"@openzeppelin/contracts/access/Ownable.sol\";\n\nimport \"../lib/openzeppelin-solidity-master/contracts/access/roles/MinterRole.sol\";\n\n/**\n * @title QVVoting\n * @dev the manager for proposals / votes\n */\ncontract QVVoting is Ownable, MinterRole {\n    //using SafeMath for uint256;\n\n    uint256 private _totalSupply;\n    string public symbol;\n    string public name;\n    mapping(address => uint256) private _balances;\n\n    event VoteCasted(address voter, uint ProposalID, uint256 weight);\n\n    event ProposalCreated(\n        address creator,\n        uint256 ProposalID,\n        string description,\n        uint votingTimeInHours\n    );\n\n    enum ProposalStatus {IN_PROGRESS, TALLY, ENDED}\n\n    struct Proposal {\n        address creator;\n        ProposalStatus status;\n        uint256 yesVotes;\n        uint256 noVotes;\n        string description;\n        address[] voters;\n        uint expirationTime;\n        mapping(address => Voter) voterInfo;\n    }\n\n    struct Voter {\n        bool hasVoted;\n        bool vote;\n        uint256 weight;\n    }\n\n    mapping(uint256 => Proposal) public Proposals;\n    uint public ProposalCount;\n\n    constructor()  {\n        symbol = \"QVV\";\n        name = \"QV Voting\";\n    }\n\n    /**\n    * @dev Creates a new proposal.\n    * @param _description the text of the proposal\n    * @param _voteExpirationTime expiration time in minutes\n    */\n    function createProposal(\n        string calldata _description,\n        uint _voteExpirationTime\n    ) external onlyOwner returns (uint) {\n        require(_voteExpirationTime > 0, \"The voting period cannot be 0\");\n        ProposalCount++;\n\n        Proposal storage curProposal = Proposals[ProposalCount];\n        curProposal.creator = msg.sender;\n        curProposal.status = ProposalStatus.IN_PROGRESS;\n        curProposal.expirationTime = block.timestamp + 60 * _voteExpirationTime * 1 seconds;\n        curProposal.description = _description;\n\n        emit ProposalCreated(\n            msg.sender,\n            ProposalCount,\n            _description,\n            _voteExpirationTime\n        );\n        return ProposalCount;\n    }\n\n    /**\n    * @dev sets a proposal to TALLY.\n    * @param _ProposalID the proposal id\n    */\n    function setProposalToTally(uint _ProposalID)\n        external\n        validProposal(_ProposalID)\n        onlyOwner\n    {\n        require(\n            Proposals[_ProposalID].status == ProposalStatus.IN_PROGRESS,\n            \"Vote is not in progress\"\n        );\n        require(\n            block.timestamp >= getProposalExpirationTime(_ProposalID),\n            \"voting period has not expired\"\n        );\n        Proposals[_ProposalID].status = ProposalStatus.TALLY;\n    }\n\n    /**\n    * @dev sets a proposal to ENDED.\n    * @param _ProposalID the proposal id\n    */\n    function setProposalToEnded(uint _ProposalID)\n        external\n        validProposal(_ProposalID)\n        onlyOwner\n    {\n        require(\n            Proposals[_ProposalID].status == ProposalStatus.TALLY,\n            \"Proposal should be in tally\"\n        );\n        require(\n            block.timestamp >= getProposalExpirationTime(_ProposalID),\n            \"voting period has not expired\"\n        );\n        Proposals[_ProposalID].status = ProposalStatus.ENDED;\n    }\n\n    /**\n    * @dev returns the status of a proposal\n    * @param _ProposalID the proposal id\n    */\n    function getProposalStatus(uint _ProposalID)\n        public\n        view\n        validProposal(_ProposalID)\n        returns (ProposalStatus)\n    {\n        return Proposals[_ProposalID].status;\n    }\n\n    /**\n    * @dev returns a proposal expiration time\n    * @param _ProposalID the proposal id\n    */\n    function getProposalExpirationTime(uint _ProposalID)\n        public\n        view\n        validProposal(_ProposalID)\n        returns (uint)\n    {\n        return Proposals[_ProposalID].expirationTime;\n    }\n\n    /**\n    * @dev counts the votes for a proposal. Returns (yeays, nays)\n    * @param _ProposalID the proposal id\n    */\n    function countVotes(uint256 _ProposalID) public view returns (uint, uint) {\n        uint yesVotes = 0;\n        uint noVotes = 0;\n\n        address[] memory voters = Proposals[_ProposalID].voters;\n        for (uint i = 0; i < voters.length; i++) {\n            address voter = voters[i];\n            bool vote = Proposals[_ProposalID].voterInfo[voter].vote;\n            uint256 weight = Proposals[_ProposalID].voterInfo[voter].weight;\n            if (vote == true) {\n                yesVotes += weight;\n            } else {\n                noVotes += weight;\n            }\n        }\n\n        return (yesVotes, noVotes);\n\n    }\n\n    /**\n    * @dev casts a vote.\n    * @param _ProposalID the proposal id\n    * @param numTokens number of voice credits\n    * @param _vote true for yes, false for no\n    */\n    function castVote(uint _ProposalID, uint numTokens, bool _vote)\n        external\n        validProposal(_ProposalID)\n    {\n        require(\n            getProposalStatus(_ProposalID) == ProposalStatus.IN_PROGRESS,\n            \"proposal has expired.\"\n        );\n        require(\n            !userHasVoted(_ProposalID, msg.sender),\n            \"user already voted on this proposal\"\n        );\n        require(\n            getProposalExpirationTime(_ProposalID) > block.timestamp,\n            \"for this proposal, the voting time expired\"\n        );\n\n        _balances[msg.sender] = _balances[msg.sender] - numTokens;\n\n        uint256 weight = sqrt(numTokens); // QV Vote\n\n        Proposal storage curproposal = Proposals[_ProposalID];\n\n        curproposal.voterInfo[msg.sender] = Voter({\n            hasVoted: true,\n            vote: _vote,\n            weight: weight\n        });\n\n        curproposal.voters.push(msg.sender);\n\n        emit VoteCasted(msg.sender, _ProposalID, weight);\n    }\n\n    /**\n    * @dev checks if a user has voted\n    * @param _ProposalID the proposal id\n    * @param _user the address of a voter\n    */\n    function userHasVoted(uint _ProposalID, address _user)\n        internal\n        view\n        validProposal(_ProposalID)\n        returns (bool)\n    {\n        return (Proposals[_ProposalID].voterInfo[_user].hasVoted);\n    }\n\n    /**\n    * @dev checks if a proposal id is valid\n    * @param _ProposalID the proposal id\n    */\n    modifier validProposal(uint _ProposalID) {\n        require(\n            _ProposalID > 0 && _ProposalID <= ProposalCount,\n            \"Not a valid Proposal Id\"\n        );\n        _;\n    }\n\n    /**\n    * @dev returns the square root (in int) of a number\n    * @param x the number (int)\n    */\n    function sqrt(uint x) internal pure returns (uint y) {\n        uint z = (x + 1) / 2;\n        y = x;\n        while (z < y) {\n            y = z;\n            z = (x / z + z) / 2;\n        }\n    }\n\n    /**\n    * @dev minting more tokens for an account\n    */\n    function mint(address account, uint256 amount) public onlyOwner {\n        require(account != address(0), \" mint to the zero address\");\n        _totalSupply = _totalSupply + amount;\n        _balances[account] = _balances[account] + amount;\n    }\n\n    /**\n    * @dev returns the balance of an account\n    */\n    function balanceOf(address account) public view returns (uint256) {\n        return _balances[account];\n    }\n\n}\n",
  "sourcePath": "C:\\Users\\Administrator\\Desktop\\_QV\\contracts\\Quadratic Voting.sol",
  "compiler": {
    "name": "solc",
    "version": "0.8.10+commit.fc410830.Emscripten.clang"
  },
  "schemaVersion": "3.4.4",
  "updatedAt": "2022-02-06T09:23:39.880Z",
  "devdoc": {
    "details": "the manager for proposals / votes",
    "kind": "dev",
    "methods": {
      "balanceOf(address)": {
        "details": "returns the balance of an account"
      },
      "castVote(uint256,uint256,bool)": {
        "details": "casts a vote.",
        "params": {
          "_ProposalID": "the proposal id",
          "_vote": "true for yes, false for no",
          "numTokens": "number of voice credits"
        }
      },
      "countVotes(uint256)": {
        "details": "counts the votes for a proposal. Returns (yeays, nays)",
        "params": {
          "_ProposalID": "the proposal id"
        }
      },
      "createProposal(string,uint256)": {
        "details": "Creates a new proposal.",
        "params": {
          "_description": "the text of the proposal",
          "_voteExpirationTime": "expiration time in minutes"
        }
      },
      "getProposalExpirationTime(uint256)": {
        "details": "returns a proposal expiration time",
        "params": {
          "_ProposalID": "the proposal id"
        }
      },
      "getProposalStatus(uint256)": {
        "details": "returns the status of a proposal",
        "params": {
          "_ProposalID": "the proposal id"
        }
      },
      "mint(address,uint256)": {
        "details": "minting more tokens for an account"
      },
      "owner()": {
        "details": "Returns the address of the current owner."
      },
      "renounceOwnership()": {
        "details": "Leaves the contract without owner. It will not be possible to call `onlyOwner` functions anymore. Can only be called by the current owner. NOTE: Renouncing ownership will leave the contract without an owner, thereby removing any functionality that is only available to the owner."
      },
      "setProposalToEnded(uint256)": {
        "details": "sets a proposal to ENDED.",
        "params": {
          "_ProposalID": "the proposal id"
        }
      },
      "setProposalToTally(uint256)": {
        "details": "sets a proposal to TALLY.",
        "params": {
          "_ProposalID": "the proposal id"
        }
      },
      "transferOwnership(address)": {
        "details": "Transfers ownership of the contract to a new account (`newOwner`). Can only be called by the current owner."
      }
    },
    "title": "QVVoting",
    "version": 1
  },
  "userdoc": {
    "kind": "user",
    "methods": {},
    "version": 1
  }
}